{
  "_format": "hh-sol-artifact-1",
  "contractName": "AgriVerify",
  "sourceName": "contracts/AgriVerify.sol",
  "abi": [
    {
      "anonymous": false,
      "inputs": [
        {
          "indexed": true,
          "internalType": "address",
          "name": "farmer",
          "type": "address"
        },
        {
          "indexed": false,
          "internalType": "string",
          "name": "cropName",
          "type": "string"
        }
      ],
      "name": "CropCertified",
      "type": "event"
    },
    {
      "inputs": [
        {
          "internalType": "address",
          "name": "",
          "type": "address"
        }
      ],
      "name": "crops",
      "outputs": [
        {
          "internalType": "string",
          "name": "name",
          "type": "string"
        },
        {
          "internalType": "string",
          "name": "farmName",
          "type": "string"
        },
        {
          "internalType": "string",
          "name": "location",
          "type": "string"
        },
        {
          "internalType": "bool",
          "name": "certified",
          "type": "bool"
        }
      ],
      "stateMutability": "view",
      "type": "function"
    },
    {
      "inputs": [
        {
          "internalType": "address",
          "name": "farmer",
          "type": "address"
        }
      ],
      "name": "getCropInfo",
      "outputs": [
        {
          "components": [
            {
              "internalType": "string",
              "name": "name",
              "type": "string"
            },
            {
              "internalType": "string",
              "name": "farmName",
              "type": "string"
            },
            {
              "internalType": "string",
              "name": "location",
              "type": "string"
            },
            {
              "internalType": "bool",
              "name": "certified",
              "type": "bool"
            }
          ],
          "internalType": "struct AgriVerify.Crop",
          "name": "",
          "type": "tuple"
        }
      ],
      "stateMutability": "view",
      "type": "function"
    },
    {
      "inputs": [
        {
          "internalType": "string",
          "name": "_cropName",
          "type": "string"
        },
        {
          "internalType": "string",
          "name": "_farmName",
          "type": "string"
        },
        {
          "internalType": "string",
          "name": "_location",
          "type": "string"
        }
      ],
      "name": "submitCertification",
      "outputs": [],
      "stateMutability": "nonpayable",
      "type": "function"
    }
  ],
  "bytecode": "0x608060405234801561001057600080fd5b50610bf6806100206000396000f3fe608060405234801561001057600080fd5b50600436106100415760003560e01c80632baeda481461004657806371786e94146100795780637b8dbf33146100a9575b600080fd5b610060600480360381019061005b91906107ef565b6100c5565b6040516100709493929190610a0e565b60405180910390f35b610093600480360381019061008e91906107ef565b61029a565b6040516100a09190610a68565b60405180910390f35b6100c360048036038101906100be9190610818565b6104c3565b005b60006020528060005260406000206000915090508060000180546100e890610b37565b80601f016020809104026020016040519081016040528092919081815260200182805461011490610b37565b80156101615780601f1061013657610100808354040283529160200191610161565b820191906000526020600020905b81548152906001019060200180831161014457829003601f168201915b50505050509080600101805461017690610b37565b80601f01602080910402602001604051908101604052809291908181526020018280546101a290610b37565b80156101ef5780601f106101c4576101008083540402835291602001916101ef565b820191906000526020600020905b8154815290600101906020018083116101d257829003601f168201915b50505050509080600201805461020490610b37565b80601f016020809104026020016040519081016040528092919081815260200182805461023090610b37565b801561027d5780601f106102525761010080835404028352916020019161027d565b820191906000526020600020905b81548152906001019060200180831161026057829003601f168201915b5050505050908060030160009054906101000a900460ff16905084565b6102a26106c3565b6000808373ffffffffffffffffffffffffffffffffffffffff1673ffffffffffffffffffffffffffffffffffffffff1681526020019081526020016000206040518060800160405290816000820180546102fb90610b37565b80601f016020809104026020016040519081016040528092919081815260200182805461032790610b37565b80156103745780601f1061034957610100808354040283529160200191610374565b820191906000526020600020905b81548152906001019060200180831161035757829003601f168201915b5050505050815260200160018201805461038d90610b37565b80601f01602080910402602001604051908101604052809291908181526020018280546103b990610b37565b80156104065780601f106103db57610100808354040283529160200191610406565b820191906000526020600020905b8154815290600101906020018083116103e957829003601f168201915b5050505050815260200160028201805461041f90610b37565b80601f016020809104026020016040519081016040528092919081815260200182805461044b90610b37565b80156104985780601f1061046d57610100808354040283529160200191610498565b820191906000526020600020905b81548152906001019060200180831161047b57829003601f168201915b505050505081526020016003820160009054906101000a900460ff1615151515815250509050919050565b604051806080016040528087878080601f016020809104026020016040519081016040528093929190818152602001838380828437600081840152601f19601f82011690508083019250505050505050815260200185858080601f016020809104026020016040519081016040528093929190818152602001838380828437600081840152601f19601f82011690508083019250505050505050815260200183838080601f016020809104026020016040519081016040528093929190818152602001838380828437600081840152601f19601f820116905080830192505050505050508152602001600115158152506000803373ffffffffffffffffffffffffffffffffffffffff1673ffffffffffffffffffffffffffffffffffffffff168152602001908152602001600020600082015181600001908051906020019061060d9291906106ed565b50602082015181600101908051906020019061062a9291906106ed565b5060408201518160020190805190602001906106479291906106ed565b5060608201518160030160006101000a81548160ff0219169083151502179055509050503373ffffffffffffffffffffffffffffffffffffffff167faf304839f76310c52b47001f856ff0abfc331eb22f0df3740da4cd97c147679f87876040516106b39291906109ea565b60405180910390a2505050505050565b60405180608001604052806060815260200160608152602001606081526020016000151581525090565b8280546106f990610b37565b90600052602060002090601f01602090048101928261071b5760008555610762565b82601f1061073457805160ff1916838001178555610762565b82800160010185558215610762579182015b82811115610761578251825591602001919060010190610746565b5b50905061076f9190610773565b5090565b5b8082111561078c576000816000905550600101610774565b5090565b60008135905061079f81610ba9565b92915050565b60008083601f8401126107b757600080fd5b8235905067ffffffffffffffff8111156107d057600080fd5b6020830191508360018202830111156107e857600080fd5b9250929050565b60006020828403121561080157600080fd5b600061080f84828501610790565b91505092915050565b6000806000806000806060878903121561083157600080fd5b600087013567ffffffffffffffff81111561084b57600080fd5b61085789828a016107a5565b9650965050602087013567ffffffffffffffff81111561087657600080fd5b61088289828a016107a5565b9450945050604087013567ffffffffffffffff8111156108a157600080fd5b6108ad89828a016107a5565b92509250509295509295509295565b6108c581610ac9565b82525050565b6108d481610ac9565b82525050565b60006108e68385610aa6565b93506108f3838584610af5565b6108fc83610b98565b840190509392505050565b600061091282610a8a565b61091c8185610a95565b935061092c818560208601610b04565b61093581610b98565b840191505092915050565b600061094b82610a8a565b6109558185610aa6565b9350610965818560208601610b04565b61096e81610b98565b840191505092915050565b600060808301600083015184820360008601526109968282610907565b915050602083015184820360208601526109b08282610907565b915050604083015184820360408601526109ca8282610907565b91505060608301516109df60608601826108bc565b508091505092915050565b60006020820190508181036000830152610a058184866108da565b90509392505050565b60006080820190508181036000830152610a288187610940565b90508181036020830152610a3c8186610940565b90508181036040830152610a508185610940565b9050610a5f60608301846108cb565b95945050505050565b60006020820190508181036000830152610a828184610979565b905092915050565b600081519050919050565b600082825260208201905092915050565b600082825260208201905092915050565b6000610ac282610ad5565b9050919050565b60008115159050919050565b600073ffffffffffffffffffffffffffffffffffffffff82169050919050565b82818337600083830152505050565b60005b83811015610b22578082015181840152602081019050610b07565b83811115610b31576000848401525b50505050565b60006002820490506001821680610b4f57607f821691505b60208210811415610b6357610b62610b69565b5b50919050565b7f4e487b7100000000000000000000000000000000000000000000000000000000600052602260045260246000fd5b6000601f19601f8301169050919050565b610bb281610ab7565b8114610bbd57600080fd5b5056fea26469706673582212208018120ec6e71e6f56f7811fe8ffa88e7930370842420de6b30c2cab90d546a564736f6c63430008000033",
  "linkReferences": {},
  "deployedLinkReferences": {}
}